:020000040800F2
:10000000507E012031020008430E000889080008D4
:100010003F0E000805060008031900080000000054
:10002000000000000000000000000000ED140008C7
:100030009106000800000000DD0E00087916000897
:100040004B0200084B0200084B0200084B0200085C
:100050004B0200084B0200084B0200084B0200084C
:100060004B0200084B0200084B0200084B0200083C
:100070004B0200084B0200084B0200084B0200082C
:100080004B0200084B0200084B0200084B0200081C
:100090004B0200084B0200084B0200084B0200080C
:1000A0004B0200084B0200084B0200084B020008FC
:1000B0004B0200084B0200084B0200084B020008EC
:1000C0004B0200084B0200084B0200084B020008DC
:1000D0004B020008E51600084B0200084B0200081E
:1000E0004B0200084B0200084B0200084B020008BC
:1000F0004B0200084B0200084B0200084B020008AC
:100100004B0200084B0200084B0200084B0200089B
:100110004B0200084B0200084B0200084B0200088B
:100120004B0200084B0200084B0200084B0200087B
:100130004B0200084B0200084B0200084B0200086B
:100140004B0200084B0200084B0200084B0200085B
:100150004B0200084B0200084B0200084B0200084B
:100160004B0200084B0200084B0200084B0200083B
:100170004B0200084B0200084B0200084B0200082B
:100180004B0200084B02000800F002F800F041F8B2
:100190000AA090E8000C82448344AAF10107DA45E2
:1001A00001D100F036F8AFF2090EBAE80F0013F0F3
:1001B000010F18BFFB1A43F0010318475C7C0000D5
:1001C0007C7C0000103A24BF78C878C1FAD8520766
:1001D00024BF30C830C144BF04680C6070470000C1
:1001E0000023002400250026103A28BF78C1FBD840
:1001F000520728BF30C148BF0B607047782900F014
:100200006D80002070471FB507F08DFC1FBD10B535
:1002100010BD00F0C9F91146FFF7F5FF03F0A0FA91
:1002200000F0E7F903B4FFF7F2FF03BC03F003F8B3
:100230000948804709480047FEE7FEE7FEE7FEE77A
:10024000FEE7FEE7FEE7FEE7FEE7FEE704480549B6
:10025000054A064B704700007D160008890100081A
:1002600050780120507E0120507A0120507A0120E0
:10027000704700000FB4044910B503AA029800F0BB
:100280005DF910BC5DF814FB0C00002070B504464D
:1002900085690068C10601D5302600E02026C00728
:1002A00007D070BDD4E9012130469047206A401C38
:1002B00020626D1EF6D570BD70B504468569007864
:1002C000C00707D170BDD4E9012120209047206AE2
:1002D000401C20626D1EF6D570BD000070B504464E
:1002E0000D4621461068AFF300802188090502D52C
:1002F0000F4A7A4402E00E4A7A440E32002104F199
:10030000240305E000F00F060009965D5E54491CC9
:100310000028F7D120780023000704D5702D02D0E3
:1003200009B1022311322046BDE8704000F0ADB89B
:10033000347900002DE9F05F894604464FF0000A49
:10034000DFF824B1FB44C0F820A02046E1688847CC
:1003500000287DD0252806D0D4E901219047206AC5
:10036000401C2062F1E700255F462046E16888478F
:100370002028064607DB312E05D2B81910F8200CCC
:1003800008B10543F1E7A80701D525F00405C4F835
:100390001CA00027C4F818A02A2E09D0304602F06D
:1003A00043FF38B304EB8708303EC8F8186019E003
:1003B00059F8041B204604EB87029161E1688847E5
:1003C000012F064618D1E069002820DA25F0200523
:1003D0001DE0D8F8180000EB800006EB4000303834
:1003E000C8F818002046E1688847064602F01CFF5E
:1003F0000028EED1012F0AD02E2E08D12046E16828
:1004000088477F1C0646022F45F02005C4DBA06903
:10041000002803DA404245F00105A061E80701D059
:1004200025F01005A6B1A6F14100192802D8203602
:1004300045F400654A463146204625604D46FFF7A3
:10044000DDFE60B1012807D0ED1D25F0070000E0BA
:1004500007E000F1080978E705F1040975E730467F
:100460007AE7206ABDE8F09F0A790000704770477C
:100470007047704710B500F073F8006810BD10B5F4
:10048000044600F06DF8046010BD2DE9F0470D46FC
:1004900099469246044600F124080168880604D56E
:1004A000E06921F01001216000E00120A84201DD97
:1004B000471B00E00027A1697A1902EB0900081A1E
:1004C000A0612078C00602D42046FFF7DFFE002698
:1004D00008E0D4E901211AF806009047206A401C80
:1004E000761C20624E45F4DB2078C0060AD52046F3
:1004F000FFF7CCFE06E0D4E9012130209047206AC6
:10050000401C2062381EA7F10107F4DC07E0D4E9A3
:10051000012118F805009047206A401C2062281E1F
:10052000A5F10105F3DC2046FFF7C6FE20780006A2
:1005300002D50220BDE8F0870120FBE7074B70B52C
:100540000D467B4400F015F80446284600F024F8D8
:1005500010B14FF0FF3070BD204670BD3331000048
:1005600000487047EC77012001694A1C0261087855
:10057000704700B58FB0CDE90131002105910549E3
:100580007944CDE9031011466846FFF7D3FE0FB05A
:1005900000BD0000E5FFFFFF007B00F0800070471A
:1005A00000487047EC7701207546FFF7F9FFAE462B
:1005B00005006946534620F00700854618B020B56F
:1005C000FFF744FEBDE820404FF000064FF0000763
:1005D0004FF000084FF0000B21F00701AC46ACE8EB
:1005E000C009ACE8C009ACE8C009ACE8C0098D4658
:1005F000704710B50446AFF300802046BDE81040B8
:10060000FFF710BE00BFFEE73EB541F6FF740121C3
:10061000080700F095FC012000F05AFC002000F0D3
:1006200027FE45F25001884230D0012000F03CFD09
:1006300004E0601C84B20A2002F056FF412000F062
:1006400013FD0028F5D004B93EBD4FF4807000F0D2
:1006500047FD012000F03EFD7F200190FF20029029
:1006600000200090684600F0D1FD00231A46312199
:100670000F2000F0EBFE05231E220C21162000F0B7
:10068000D3FE45F25001002000F022FF00BFDBE75F
:100690007047000051B18200A2F1C042126842F0DE
:1006A00001038200A2F1C042136009E08200A2F1BE
:1006B000C0421268034B1A408300A3F1C0431A6082
:1006C00070470000FEFF0F00D0E901121143C2681D
:1006D0001143026911434269114382691143C2699E
:1006E0001143026A1143426A1143826A1143C26A8A
:1006F0001143026B114302689200A2F1C0421160E3
:10070000816808290BD101688900A1F1C0410968FD
:1007100041F0400201688900A1F1C0410A60416BCB
:100720000968426B526841EA0211426B926841EAE1
:100730000221426B928941EA0241426B128A41EAEC
:100740000251426B127D41EA0261426B9269114390
:100750000268521C9200A2F1C0421160C16AB1F558
:10076000804F1BD1816B0968826B526841EA02118C
:10077000826B926841EA0221826B128A41EA02513D
:10078000826B127D41EA0261826B926911430268B9
:100790009200A2F1C042C2F8041107E06FF070426B
:1007A00001688900A1F1C041C1F804217047F0B58A
:1007B0000A4600210023002400BF3DE0012505FA80
:1007C00001F3156805EA03049C4234D105684F0023
:1007D0000326BE40B543056015794E00B540066856
:1007E000354305601579012D02D01579022D16D1FA
:1007F00085684F000326BE40B543856055794E009D
:10080000B540866835438560456801268E40B5430E
:100810004560456896798E40B6B235434560C568F7
:100820004F000326BE40B543C560D5794E00B540A4
:10083000C6683543C560491C1029BFD3F0BDF0B56B
:10084000002300244D07ED0E02FA05F3CE1000F14F
:10085000200555F826504E07F70E0F26BE40B5432B
:10086000CF1000F1200646F82750CE1000F12005E9
:1008700055F8265045EA0304CE1000F1200545F84E
:100880002640F0BD0183704700BFFEE700B59FB072
:1008900001217A2000F024FB4FF400400090012059
:1008A0008DF8040000208DF8060002208DF8050068
:1008B00001208DF8070069467F48FFF778FF4CF26A
:1008C0003370009002208DF8040000208DF806009F
:1008D00003208DF8050001208DF807006946774850
:1008E000FFF765FF4FF68070009002208DF804003E
:1008F00000208DF8060003208DF8050001208DF8FA
:10090000070069466E48FFF752FF4FF48050009091
:1009100002208DF8040000208DF8060003208DF8D9
:10092000050001208DF8070069466648FFF73FFF84
:100930004FF48050009002208DF8040000208DF8C4
:10094000060003208DF8050001208DF80700694698
:100950005D48FFF72CFF0C2200215848FFF76FFF7E
:100960000C2201215548FFF76AFF0C22042153484D
:10097000FFF765FF0C2205215048FFF760FF0C22AE
:1009800008214E48FFF75BFF0C2209214B48FFF777
:1009900056FF0C220A214948FFF751FF0C220E2175
:1009A0004648FFF74CFF0C220F214448FFF747FF52
:1009B0000C2200214248FFF742FF0C22012140484F
:1009C000FFF73DFF0C2207213D48FFF738FF0C22BF
:1009D00008213B48FFF733FF0C2209213848FFF775
:1009E0002EFF0C220A213648FFF729FF0C220B218B
:1009F0003348FFF724FF0C2211463148FFF71FFF51
:100A00000C220D212E48FFF71AFF0C220E212C4834
:100A1000FFF715FF0C220F212948FFF710FF0C22CA
:100A200011462848FFF70BFF0C2211462648FFF716
:100A300006FF0121084600F073FA4FF0805017902E
:100A4000002012900A20119000201490159016900A
:100A50000A2013904FF080501E90002019900F2014
:100A6000189000201B901C901D903C201A90002094
:100A70000790062002900020069003904FF48040DB
:100A80000D90102005900820049000200C900A90F2
:100A9000089009900E904FF480500B9018A80F907A
:100AA00011A8109002A8FFF70FFE01210620FFF702
:100AB000F1FD1FB000BD000000040240000C024028
:100AC00000100240001402400018024030B50346F6
:100AD0000C4615462A2000F068F9181200F06AF951
:100AE000D8B200F067F92B2000F05FF9201200F077
:100AF00061F9E0B200F05EF92C2000F056F92846CA
:100B000000F058F930BD2DE9F041064688461746F9
:100B10001FB940F61610BDE8F081002411E0002551
:100B20000BE004FB06F007EB400030F815202146EF
:100B30002846FFF7CBFF681C85B2B542F1DB601C8D
:100B400084B24445EBDB40F61510E4E70148008829
:100B5000704700008000006C00B5D32000F025F93C
:100B6000FFF7F4FFFFF7F2FFFFF7F0FF03464FF642
:100B7000FF7000EA0323FFF7E9FF184300BD10B53B
:100B8000CF2000F012F9002000F014F9C12000F08D
:100B900011F9302000F00EF9ED2000F006F9642084
:100BA00000F008F9032000F005F9122000F002F926
:100BB000812000F0FFF8E82000F0F7F8852000F031
:100BC000F9F8102000F0F6F87A2000F0F3F8CB20C6
:100BD00000F0EBF8392000F0EDF82C2000F0EAF8F6
:100BE000002000F0E7F8342000F0E4F8022000F0E4
:100BF000E1F8F72000F0D9F8202000F0DBF8EA2037
:100C000000F0D3F8002000F0D5F8002000F0D2F872
:100C1000C02000F0CAF81B2000F0CCF8C12000F082
:100C2000C4F8012000F0C6F8C52000F0BEF830205E
:100C300000F0C0F8302000F0BDF8C72000F0B5F893
:100C4000B72000F0B7F8362000F0AFF8482000F0E9
:100C5000B1F83A2000F0A9F8552000F0ABF8B12027
:100C600000F0A3F8002000F0A5F81A2000F0A2F888
:100C7000B62000F09AF80A2000F09CF8A22000F0BC
:100C800099F8F22000F091F8002000F093F8262067
:100C900000F08BF8012000F08DF8E02000F085F8DE
:100CA0000F2000F087F82A2000F084F8282000F0B8
:100CB00081F8082000F07EF80E2000F07BF8082074
:100CC00000F078F8542000F075F8A92000F072F8D0
:100CD000432000F06FF80A2000F06CF80F2000F0BD
:100CE00069F8002000F066F8002000F063F80020AA
:100CF00000F060F8002000F05DF8E12000F055F809
:100D0000002000F057F8152000F054F8172000F0EC
:100D100051F8072000F04EF8112000F04BF80620A3
:100D200000F048F82B2000F045F8562000F042F87B
:100D30003C2000F03FF8052000F03CF8102000F0C7
:100D400039F80F2000F036F83F2000F033F83F204C
:100D500000F030F80F2000F02DF82B2000F025F8DF
:100D6000002000F027F8002000F024F8012000F017
:100D700021F83F2000F01EF82A2000F016F800208D
:100D800000F018F8002000F015F8002000F012F82C
:100D9000EF2000F00FF8112000F007F8782002F0A3
:100DA000A3FB292000F001F810BD4FF0D8410880C6
:100DB0007047000001490880704700008000006C07
:100DC0000FB5B0EE402AF0EE602AB0EE413AF0EEF8
:100DD000613A8DED002ACDED012A8DED023ACDED7F
:100DE000033A9DED000ADDED010A9DED021ADDEDED
:100DF000031A0FBD2DED060B82B09DED020ADDED4D
:100E0000060A20EE200ADDED030A9DED071A00EE2A
:100E1000810A8DED000A9DED040ADDED060A20EE43
:100E2000200ADDED050A9DED071A00EE810A8DED21
:100E3000010A9DED000ADDED010A08B0704700BF10
:100E4000FEE7704770B5002100230F22C4781CB361
:100E5000174C246804F4E064C4F5E064C4F307218B
:100E6000C1F10404E3B20A4144789C40E1B28478C1
:100E7000144021430C07210E0E4C0578615504786F
:100E800004F01F050124AC4005786D11AD0005F19B
:100E9000E025C5F8004109E0047804F01F050124AD
:100EA000AC40054D0678761145F8264070BD00002F
:100EB0000CED00E000E400E080E100E002490143C5
:100EC000024A1160704700000000FA050CED00E0D6
:100ED000014908627047000000000E4270470000A0
:100EE00029B1064A12680243044B1A6004E0034A1F
:100EF00012688243014B1A6070470000303802408C
:100F000029B1064A12680243044B1A6004E0034AFE
:100F100012688243014B1A60704700003438024067
:100F200029B1064A12680243044B1A6004E0034ADE
:100F300012688243014B1A60704700003838024043
:100F400029B1064A12680243044B1A6004E0034ABE
:100F500012688243014B1A6070470000403802401B
:100F600029B1064A12680243044B1A6004E0034A9E
:100F700012688243014B1A607047000044380240F7
:100F8000F0B5002100220024022500260223324F62
:100F90003F6807F00C0121B1042905D0082937D199
:100FA00005E02E4F076036E02D4F076033E02A4FF3
:100FB0003F1F3F68C7F38056274F3F1F3F6807F02A
:100FC0003F036EB1264FB7FBF3F7DFF88CC0ACF1EF
:100FD000040CDCF800C0CCF3881C07FB0CF40CE01C
:100FE0001E4FB7FBF3F7DFF870C0ACF1040CDCF870
:100FF00000C0CCF3881C07FB0CF4174F3F1F3F6861
:10100000C7F301477F1C7D00B4FBF5F7076002E0E2
:10101000124F076000BF00BF0F4F3F6807F0F0019D
:101020000909104F7A5C0768D74047600A4F3F684C
:1010300007F4E051890A0B4F7A5C4768D740876014
:10104000054F3F6807F46041490B064F7A5C4768DB
:10105000D740C760F0BD0000083802400024F4000B
:1010600000127A001200002010B501460022002371
:1010700000204A11012A02D10A4C236808E0022A02
:1010800003D1084C7034236802E0064C74342368A2
:1010900001F01F02012494401C400CB1012000E02B
:1010A000002010BD003802400021094A1170117063
:1010B000012802D0042808D103E00121044A11705C
:1010C00004E00521024A117000E000BF00BF704734
:1010D0007038024001490860704700003C0E4742EA
:1010E000002100F44072B2F5407F08D1094A11682E
:1010F00021F4F811084A02401143064A1160054ADA
:1011000068321268C0F30B031A43024B68331A604B
:101110007047000008380240FFFCFF0F0146002026
:10112000C1F3C44210434FF6FF7202EAC020C1F37C
:10113000852240EA4210C1F3C40210437047000008
:1011400030B10749096841F00401054A116005E022
:101150000349096821F00401014A11607047000049
:101160000008065010B501214020FFF7C9FE0120FC
:10117000FFF7E6FF10BD014600BF080900EB800045
:10118000420001F00F001044C0B270470146002237
:1011900004E0501CC2B2A1F10A00C1B20A29F8DA77
:1011A000100741EA1060704708B500220092002045
:1011B0000021104A126802F04002CAB9421E0D4BCB
:1011C0001A6000BF0B4A126802F04001009A521CDC
:1011D0000092009AB2F5803F01D00029F2D0054A72
:1011E000126802F040020AB1012002E0002000E093
:1011F000012008BD0C2800400348006820F0800052
:1012000001490860704700000C28004030B50446D2
:101210000025CA201549086053200860FFF7C4FF65
:1012200000B91DE011481C38006820F040000F494B
:101230001C39086008460068216808430B491C39BE
:1012400008600A491439A068086008460068A18847
:1012500040EA0140054914390860FFF7CDFF012538
:10126000FF2002490860284630BD000024280040C5
:1012700008B501460020009004480090009800EB5B
:10128000810000900098006808BD000050280040D0
:101290002DE9F04105460C46002600274DB960783F
:1012A00000F01000102804D1607820F010000A30FF
:1012B000607005B908E06078FFF75DFF0646A0782A
:1012C000FFF759FF064600BF55B1E078000461788A
:1012D00040EA0120A1780843217840EA413611E034
:1012E000E078FFF753FF4FEA00486078FFF74EFFC2
:1012F00048EA0028A078FFF749FF48EA000820786C
:1013000048EA4036CA201249086053200860FFF7B7
:101310004BFF08B9002714E00E4830400C49203933
:101320000860FFF769FF0A481C38006800F02000D9
:1013300030B900F09DF808B9002702E0012700E06D
:101340000127FF20024908603846BDE8F08100000F
:10135000242800403FFFFF002DE9F04105460C46E0
:10136000002600274DB92E48006800F0400000B16B
:1013700002E00020E07000BF0DE02948006800F0A6
:10138000400020B12078FFF7F6FE064602E000207C
:10139000E07000BF00BF55B120780004617840EADA
:1013A0000120A1780843E17840EA014611E0207865
:1013B000FFF7ECFE4FEA00486078FFF7E7FE48EAE7
:1013C0000028A078FFF7E2FE48EA0008E07848EA43
:1013D0000046CA2012491C31086053200860FFF7FC
:1013E000E3FE08B9002713E00E4830400C490839E5
:1013F0000860FFF701FF0A48006800F0200030B9DC
:1014000000F036F808B9002702E0012700E00127C4
:10141000FF2003491C3108603846BDE8F081000018
:10142000082800407F7F7F00F8B504460D46174628
:101430001E468DF802708DF801508DF800608DF811
:10144000034069460020FFF723FFF8BDF8B50446C6
:101450000D4617461E468DF800408DF801508DF858
:1014600002708DF8036069460020FFF775FFF8BD34
:1014700008B50022009200200021CA22134B1A60F6
:1014800053221A60114A183A126822F0A0020F4B38
:10149000183B1A6000BF0D4A183A126802F020018A
:1014A000009A521C0092009AB2F5003F01D0002928
:1014B000F1D0064A183A126802F020020AB101205F
:1014C00000E00020FF22014B1A6008BD24280040E4
:1014D00008B500220092044A0092009A02EB8002B2
:1014E0000092009A116008BD50280040704700002B
:1014F0007CB500242CE0002527E000EE104AF8EE31
:10150000C00A00EE105AB8EEC00A00F0FCF98DEDEA
:10151000000ACDED010ADDED010A9DED000A02F0A1
:1015200067F90646FFF7FAFDC4EB041105EB01115C
:10153000094A22F81100C4EB041005EB001032F840
:10154000101006A0FEF796FE6D1CF02DD5DB641C76
:10155000C82CD0DB7CBD0000240000202530327870
:10156000200D0A000CB5002001900090344800685E
:1015700040F480303249086000BF3148006800F410
:10158000003000900198401C0190009818B9019813
:10159000B0F5A04FF1D12A48006800F4003010B136
:1015A0000120009001E0002000900098012846D121
:1015B00023484030006840F08050214940310860A5
:1015C0002048006840F440401E4908601C4808302C
:1015D00000681B49083108600846006840F4004074
:1015E00008600846006840F4A05008601648091FCB
:1015F0000860081F006840F08070091F086000BF85
:101600000F48006800F000700028F9D040F2057023
:101610000E4908600A480830006820F003000849B5
:10162000083108600846006840F00200086000BF0A
:1016300003480830006800F00C000828F8D10CBD01
:10164000003802400070004008544007003C02404F
:10165000042808D14FF0E021096941F004014FF05E
:10166000E022116107E04FF0E021096921F0040157
:101670004FF0E022116170477047000010B5154827
:10168000006840F47000134908601348006840F097
:1016900001001149086000200F49083108600E4818
:1016A00000680E4908400C4908600D48091D086093
:1016B000081F006820F48020091F086000200649E8
:1016C0000C310860FFF74EFF4FF000600149803990
:1016D000086010BD88ED00E000380240FFFFF6FE14
:1016E0001030002410B540F225511D4800F04AF892
:1016F00010B31B4800F000F9C4B21A48008800F487
:101700000040C8B91748008800F4804060B10A2C36
:1017100003D000201349088020E01248008840F4DC
:1017200000401049088019E00D2C06D10D480088B2
:1017300040F480400B49088010E00A480088C0F35C
:101740000D0009490C5407480088401C05490880D1
:1017500008460088C72801DD0020088010BD000071
:1017600000100140100000202477012021B182895F
:1017700042F40052828104E082894DF6FF731A40E0
:101780008281704770B502460024002300250020A6
:1017900040F66A16B14200D100BFC1F3421501F014
:1017A0001F03012606FA03F3012D02D19689334067
:1017B00006E0022D02D1168A334001E0968A3340BA
:1017C0000C12012606FA04F41688344013B10CB149
:1017D000012000E0002070BDF0B503460024002683
:1017E0000025002040F66A17B94200D100BF184614
:1017F000C1F3421401F01F06012707FA06F5012C78
:1018000001D10C3004E0022C01D1103000E0143082
:101810001AB107682F43076002E00768AF4307600B
:10182000F0BD00002DE9FF4705460E460024A14605
:1018300000BFA046B08900B100BF2C8A24F44054F8
:10184000F08804432C82AC8941F20C608443B08858
:1018500031890843718908430443AC81AC8A24F47C
:101860004074B0890443AC826846FFF789FB204886
:10187000854202D01F48854202D1DDF80C9001E07C
:10188000DDF80890A88900F4004040B109EBC900D8
:1018900000EB091031684900B0FBF1F707E009EBF4
:1018A000C90000EB091031688900B0FBF1F7642032
:1018B000B7FBF0F004012009642101FB1078A8892E
:1018C00000F4004040B1322000EBC800B0FBF1F062
:1018D00000F00700044308E0322000EB0810642108
:1018E000B0FBF1F000F00F0004432C81BDE8FF874E
:1018F000001001400014014001468888C0F3080030
:10190000704700BFFEE70CB5F0EE401AB0EE601A6B
:10191000CDED001A8DED011A9DED000ADDED010AF5
:101920000CBD0EB5F0EE402AF0EE601AB0EE412A82
:10193000CDED002ACDED011A8DED022A9DED000AB4
:10194000DDED010A9DED021A0EBD03B401984100C0
:10195000009850EAC12018BF04204A0D18BF40F07B
:10196000010040F2FF72B2EB515F08BF40F002008D
:10197000012808BF052002B07047000000000000E9
:1019800010B52F499FED2C1B2DED020B84B005984F
:1019900020F000408842D8BF9DED040B2DDD294981
:1019A000884209D1049840B94FF00100FEF767FD65
:1019B00001F00AFC06B010BD05DB9DED040B01F043
:1019C000EFFB06B010BD68469DED040B00F0E8FF8C
:1019D00010F0030004BF9DED021B9DED000B0CD029
:1019E00001280ED09DED021B9DED000B022817D0A3
:1019F000012001F025FB06B010BD01F0EDF906B0A5
:101A000010BD9DED021B9DED000B012001F018FBA8
:101A100051EC100B05F090F906B041EC100B10BD25
:101A200001F0DAF951EC100B05F086F906B041EC43
:101A3000100B10BD000000000000000000000000BE
:101A4000FB21E93F0000F07F2DED020B019820F013
:101A5000004001909DED000B02B0704710EE100A9F
:101A6000C0F3C7517F391729A8BF7047DFED140AAB
:101A7000002970EE200A0DDAF5EEC00AF1EE10FA38
:101A80001ADD0028A8BF002016DAB0F1004F18BFF9
:101A90000C4811E00C4ACA40104208BF7047F5EEEE
:101AA000C00AF1EE10FA07DD002804DA4FF4000353
:101AB00023FA01F10844904300EE100A7047000039
:101AC000CAF24971000080BFFFFF7F0010B52DED05
:101AD000040B86B09DED060B10EE100A10EE901A66
:101AE0008DED000B002818BF0120084320F00040B6
:101AF000C0F17F6000F1E040C00F21D19DED080BE7
:101B000010EE101A10EE900A8DED000B002918BF90
:101B10000121084320F00040C0F17F6000F1E04067
:101B2000C00F0DD129490798B1EB400F04BF0698AB
:101B3000002842D00998400004BF089800283CD0F3
:101B40009DED080B53EC102B9DED060B51EC100B8B
:101B500005F0D2FCCDE902019DED020B40F2FF71D0
:101B600010EE900A8DED000B31EA105021D007984D
:101B7000039900F0004001F00041884219D09DED2A
:101B8000080B8DED040B9DED020B8DED000B10EE9F
:101B9000900A059961F31E0005909DED041B9DEDD3
:101BA000020B51EC110B53EC102B05F089FDCDE924
:101BB00002019DED020B0AB010BD0120FEF75FFC93
:101BC0000AB0BDE8104001F0FFBA00000000E0FFDD
:101BD0002DE9F04D2DED040B2DED0E8B96B0DDE9CA
:101BE0002550279CDDF890A025F0004624F0004801
:101BF000BAF1000F14BF0121002101EB4502FC499D
:101C000053184A1093422AD3002814BF01230023FB
:101C100003EB44030B44F7498B4220D358EA0001FD
:101C20009FEDF59B76D0DFF8D8B35D4503D1BAF1CF
:101C3000000F05D188E0BAF1000F08BF002100D0E5
:101C4000012101EB450111F5001F08D8002814BF40
:101C50000121002101EB440111F5001F0BD99DED7D
:101C6000261B9DED240B16B0BDEC0E8B04B0BDE819
:101C7000F04D01F09FBA0027002DBCBFE149884517
:101C800021DAE1498845A8BF02271CDAC3451ADCDE
:101C9000DE4901EB2851142908DDC1F1340220FA94
:101CA00002F101FA02F282420DD108E058B9C1F105
:101CB000140228FA02F101FA02F2424503D101F0BE
:101CC0000101C1F1020756EA0A0124D1002C22DAEF
:101CD000002D18BF022F01D0012F0AD00220FEF7DD
:101CE000CEFB16B0BDEC0E8B04B0BDE8F04D01F09C
:101CF0003FBA0220FEF7C3FB01F03AFA51EC100B99
:101D000005F01AF841EC100B16B0BDEC0E8B04B0C8
:101D1000BDE8F08D18E09FEDBEAB9FEDBF8B0028B6
:101D200071D1B848804522D105F1804010F580106E
:101D300008BFBAF1000F07D0B3450ADC002CA8BFDA
:101D40009DED260BE0DA0DE0B0EE490AF0EE690AEF
:101D5000DAE7002C06DA9DED260B51EC100B04F0AF
:101D6000EBFF6FE0AE48784490ED000BCCE7D84530
:101D70004DD1002C48DA2EB186423AD1BAF1000F8B
:101D800042D126E0BAF1000F13D00220FEF777FB14
:101D900001F02AFA8DED020B9DED240B8DED000B69
:101DA00010EE900A039961F31E0003909DED020B63
:101DB000AAE78DED02AB9DED240B1AEE901A10EE02
:101DC000900A8DED000B61F31E0003909DED020B58
:101DD0009AE78DED028B9DED240B18EE901A10EE14
:101DE000900A8DED000B61F31E0003909DED020B38
:101DF0008AE709DA9DED240B51EC190B53EC102BFB
:101E000005F094F81EE020E09DED240B7CE786426F
:101E10001BDAB4F1804F0DD0A4F10050B0F1FF50A7
:101E200013D1002D11DB9DED240B51EC100B04F0B0
:101E30002FFD07E09DED240B53EC102B51EC100B04
:101E400000F0C2BC41EC100B5EE79DED240B51ECA1
:101E5000100B01F0E3FBBAF1000FCDE90E0142D106
:101E60009FED710B46B3A6F1E040B0F17F600CD05E
:101E70005E4538D1002D00DAA7B3022F0CBF012038
:101E80004FF0FF3005F0D9F9DCE7002D01DD002C23
:101E90000DDA002D01DD002C1FDB002D16DA002CE1
:101EA00014DB012F08BF9FED620B3FF42DAFB0EEA6
:101EB0004A0AF0EE6A0A27E7022F18BF002D0CD05D
:101EC000012F0AD1002DFFF61FAF06E0002DB8BF8D
:101ED000002C08DA012F3FF417AFB0EE480AF0EEFD
:101EE000680A11E71BE0012000EBE57050EA0701EA
:101EF00015D0791EB0EE498AF0EE698A084308BF12
:101F00009FED4D8B4E480025804570DD4D494E4874
:101F1000884514DDB0420DDB002C19DB2FE00120D9
:101F2000FEF7ADFA16B0BDEC0E8B04B0BDE8F04D77
:101F300001F04AB9B34502DC002C09DC1FE08642FF
:101F400002DA002C1BDA03E05E452BDD002C16DDE7
:101F50000220FEF794FA01F047F98DED020B53ECE5
:101F60001A2B51EC180B05F0CFF9CDE900010399BC
:101F7000019861F31E0003909DED020BC4E6022060
:101F8000FEF77DFA01F040F910EE901A18EE900A73
:101F90008DED020B8DED008B61F31E0003909DED26
:101FA000020BB1E69DED0E0B53EC192B51EC100B0F
:101FB00005F05EFC9FED260BCDE9080153EC102BDC
:101FC0009DED080B51EC100B05F09EF99FED221BC7
:101FD00053EC112B05F074FB9DED081B53EC112BFA
:101FE00005F092F99FED1E1B53EC112B3CE08CE0A9
:101FF000FFFF1F00FFFF0F00000000000000F03F88
:102000000000F03F0000F07F0000404301FCFFFFB4
:10201000000000000000F07F000000000000000051
:10202000B65F00000000000000000000000000801B
:10203000000000000000F0FF000000000000F0BF02
:102040000000E0410000F043FFFFEF3F0000000010
:10205000000000000000D03F555555555555D53F5F
:10206000000000000000E03F05F02AFB9DED080B9A
:1020700041EC1A0B53EC102B51EC100B05F044F90A
:1020800053EC1A2B05F040F941EC1A0B9FEDFE0BB7
:1020900053EC102B9DED080B51EC100B05F034F9AF
:1020A00041EC1B0B9FEDFA0B51EC1A0B53EC102B70
:1020B00005F02AF941EC1A0B9FEDF70B53EC102BAE
:1020C0009DED080B51EC100B05F01EF953EC1A2B8B
:1020D00005F0CEFB41EC1A0B51EC1B0B53EC1A2B09
:1020E00004F068FE0690CDE906519DED060B53EC19
:1020F0001B2B51EC100B05F0BBFB53EC1A2B05F01E
:10210000DFFA41EC100B00F0A1B90020B6F5801FFA
:102110000EDA9FEDE30B53EC102B9DED0E0B51EC03
:10212000100B05F0F1F8CDE90E016FF034000E460A
:1021300000EB2650A0F2FF37C6F31300DA4940F057
:102140007F6646F040568842D8BF002408DDD74954
:102150008142C8BF012403DC0024A6F580167F1C41
:10216000D348784400EBC4000F9690ED00CB9DED72
:102170000E0B53EC1C2B51EC100B05F079FB9DED75
:102180000E0B41EC1B0B53EC1C2B51EC100B04F011
:1021900011FE41EC100B51EC190B53EC102B04F019
:1021A000C5FE41EC1D0B51EC1B0B53EC1D2B05F038
:1021B000ABF841EC1A0BBF488DED10AB784410958D
:1021C00090ED000B4FF0005040EA660000EB8440B9
:1021D0008DED080B00F5002009909DED080B53ECE8
:1021E0001C2B51EC100B05F043FB9DED0E1B53EC2B
:1021F000112B05F065FA41EC100B53EC102B9DED03
:10220000100B51EC100B05F07FF89DED080B41EC25
:102210001C0B53EC102B9DED100B51EC100B05F02B
:1022200073F853EC1B2B05F04BFA53EC1C2B05F009
:102230001FFB53EC1D2B05F067F841EC1C0B53EC16
:102240001A2B51EC1A0B05F05FF841EC1B0B9A4866
:102250000621B0EE4B0AF0EE6B0A784400F074FEF3
:10226000B0EE401AF0EE601AB0EE41DAF0EE61DA4C
:1022700053EC1B2B51EC1B0B05F046F853EC1D2BBC
:1022800005F042F89DED100B41EC1B0B53EC1A2BA3
:1022900051EC100B04F08EFD53EC1C2B05F034F8C0
:1022A00053EC1B2B04F086FD9DED100B41EC1B0B3A
:1022B00053EC102B51EC100B05F026F841EC1D0BE4
:1022C0009FED7FEB53EC1E2B04F074FD53EC1B2BA6
:1022D00004F070FD0890CDE908519DED080B53EC1A
:1022E0001E2B51EC100B05F0C3FA53EC1D2B05F01F
:1022F000BFFA53EC1B2B05F0E3F99DED080B41EC05
:102300001D0B53EC102B9DED100B51EC100B04F03A
:10231000FBFF41EC1B0B53EC1A2B51EC1D0B04F093
:10232000F3FF9DED080B41EC1A0B53EC102B51EC15
:102330001C0B04F0E9FF53EC1A2B04F03BFD41ECBD
:102340001A0B51EC1B0B53EC1A2B04F033FD0C90C1
:10235000CDE90C519DED0C0B53EC1B2B51EC100BEC
:1023600005F086FA53EC1A2B05F0AAF941EC1B0B89
:102370009FED550B53EC102B9DED0C0B51EC100BFE
:1023800004F0C2FF41EC1A0B9FED510B51EC1B0BFB
:1023900053EC102B04F0B8FF41EC1B0B9FED4E0BE0
:1023A00053EC102B9DED0C0B51EC100B04F0ACFF1B
:1023B00053EC1B2B04F0FEFC41EC100B4848784416
:1023C00000EBC40090ED001B51EC100B53EC112BF3
:1023D00004F0F0FC41EC1B0B384604F02EFFCDE975
:1023E000080153EC1B2B51EC1A0B04F0E3FC41ECFD
:1023F000100B3C48784400EBC40090ED00CB51EC4E
:10240000100B53EC1C2B04F0D5FC9DED081B53EC7A
:10241000112B04F0CFFC0690CDE906519DED080B81
:1024200053EC102B9DED060B51EC100B05F020FA30
:1024300053EC1C2B05F01CFA53EC1A2B05F018FA80
:1024400053EC1B2B05F03CF941EC100B9DED261BCA
:1024500053EC102B8DED001B00959DED260B51ECE0
:10246000100B04F051FF9DED000B41EC1A0B53ECE7
:10247000102B9DED260B51EC100B05F0F9F99DED9D
:10248000061B53EC112B2FE0000000604715F73FAF
:10249000FE822B654715F73F44DF5DF80BAE543ED7
:1024A00000000000000040438E9803007AB60B0045
:1024B000025B0000605B00003A5A00000000000070
:1024C0000000000000000840000000E009C7EE3FE7
:1024D000FD033ADC09C7EE3FF5015B14E02F3EBE79
:1024E000C65800008058000004F00EFF53EC1A2B71
:1024F00004F060FC9DED060B41EC1A0B53EC102B25
:102500009DED000B51EC100B04F0FEFECDE90C012B
:102510009DED0C0B51EC1A0B53EC102B04F04AFC04
:10252000CDE902010C46AA498C422FDB611A08430F
:1025300018D19DED0C0B53EC102B9DED020B51ECC3
:10254000100B05F095F941EC1B0B9FEDA30B51EC23
:102550001A0B53EC102B04F02DFC53EC1B2B05F045
:1025600079F82DD20220FDF78AFF00F03DFE10EE33
:10257000901A18EE900A8DED020B8DED008B61F331
:102580001E0003909DED020BFFF7BEBB944A24F0A2
:102590000041914214D39349214408437FF4EFACA6
:1025A0009DED0C0B53EC102B9DED020B51EC100B21
:1025B00005F05EF953EC1A2B05F04CF87FF6DFAC12
:1025C00024F000408849894A002601EB20518242CC
:1025D0002BDA481C4FF4801121FA00F02044844A81
:1025E000C0F30A517A44A1F2FF3192ED000B814A07
:1025F0008DED080BCA4020EA0202C0F3130040F43C
:102600008010C1F1140120FA01F60992002CB8BF24
:1026100076429DED080B53EC102B9DED0C0B51EC0D
:10262000100B05F025F9CDE90C019DED0C0B51ECDB
:102630001A0B53EC102B04F0BDFB9FED6F0B0890B1
:10264000CDE9085153EC102B9DED080B51EC100B0C
:1026500004F05AFE41EC1B0B9FED690B53EC102B61
:102660009DED080B51EC100B04F04EFE9DED0C0B94
:1026700041EC1C0B53EC102B9DED080B51EC100B97
:1026800005F0F6F853EC1A2B05F01AF89FED5E1BD7
:1026900053EC112B04F038FE53EC1C2B04F08AFB96
:1026A00041EC1A0B51EC1B0B53EC1A2B04F082FB80
:1026B000CDE902019DED020B53EC1B2B51EC100BED
:1026C00005F0D6F853EC1A2B04F0FAFF9DED020B3F
:1026D00041EC1A0B53EC102B51EC100B04F014FED0
:1026E000CDE908014A489DED080B0521784400F02A
:1026F0002BFC9DED081B51EC100B53EC112B04F03F
:1027000003FE9DED021B53EC112B04F0D9FFCDE924
:1027100006019DED020B53EC1A2B51EC100B04F04B
:10272000F3FD53EC1A2B04F045FB9FED3B0B41EC02
:102730001A0B53EC102B9DED060B51EC100B05F012
:1027400097F89DED060B41EC1B0B53EC102B9DED08
:10275000020B51EC100B04F0D7FD53EC1B2B04F0D3
:10276000E5FB53EC1A2B05F083F89DED021B53ECAF
:10277000112B05F07DF853EC192B04F0A1FFCDE9E6
:10278000020101EB065001150029C8BF039015DCBA
:102790009DED020B324651EC100B05F000FAFFF7ED
:1027A000D4F8042808BF00F02FFD32469DED020B3F
:1027B00051EC100B05F0F3F9CDE902019DED020B90
:1027C00051EC180B53EC102B04F09EFDFFF73ABBB5
:1027D0000000904000000000FE822B654715973CEA
:1027E00000CC904000346F3F01FCFFFF0000E03F51
:1027F00038570000FFFF0F0000000000432EE63FA7
:10280000396CA80C615C20BEEF39FAFE422EE63F1F
:10281000D85500000000000000000000000000404B
:1028200010B52F499FED2C1B2DED020B84B00598A0
:1028300020F000408842DCBF00209DED040B32DD1B
:102840002849884209D1049840B94FF00100FDF7AA
:1028500016FE00F0B9FC06B010BD05DB9DED040BC3
:1028600000F09EFC06B010BD68469DED040B00F024
:1028700097F810F0030011D0012818D09DED021B2D
:102880009DED000B02281AD000F0A6FA51EC100BB7
:1028900004F052FA06B041EC100B10BD9DED021B86
:1028A0009DED000B012000F0CBFB06B010BD9DEDAF
:1028B000021B9DED000B00F08FFA06B010BD012049
:1028C00000F0BEFB51EC100B04F036FA06B041EC00
:1028D000100B10BD00000000000000000000000010
:1028E000FB21E93F0000F07F00B52DED048BB0EE39
:1028F000409AF0EE609A83B051EC190B04F0ECFEB4
:1029000041EC180B18EE100A18EE901A8DED008BA2
:10291000002818BF0120084320F00040C0F17F606C
:1029200000F1E040C00F14D019EE101A19EE900A11
:102930008DED009B002918BF0121084320F00040C5
:10294000C0F17F6000F1E040C00F04BF0120FDF73F
:1029500096FDB0EE480A03B0F0EE680ABDEC048BB9
:1029600000BD10B52DED028BB1EEC08A18EE100A35
:1029700020F00040C0F1FF40C00F0AD010EE100A56
:1029800020F00040C0F1FF40C00F04BF0120FDF760
:1029900076FDB0EE480ABDEC028B10BD00000000D1
:1029A0002DE9F14F04462DED020B2DED088B8AB079
:1029B0009FEDE70B80ED020B139EE74826F00045E4
:1029C00085420ADC9DED120B002084ED000B0AB05D
:1029D000BDEC088B03B0BDE8F08FE0489FEDE0ABA5
:1029E0009FEDE1BBA84247DDE14F9FEDE39B9FEDEB
:1029F000E48B9DED120B53EC1A2B51EC100B002EB7
:102A00001CDD04F035FF41EC100BBD4208D053EC47
:102A10001B2B51EC100B04F02BFFC4E900010BE061
:102A200053EC192B51EC100B04F022FF53EC182B34
:102A300004F01EFFC4E900010120C8E704F0BAF960
:102A400041EC100BBD4208D053EC1B2B51EC100B8A
:102A500004F0B0F9C4E900010BE053EC192B51EC80
:102A6000100B04F0A7F953EC182B04F0A3F9C4E9F8
:102A700000014FF0FF30AAE7C348A84279DB9DED83
:102A8000120B51EC100B00F0C9FD41EC180B9FED3F
:102A9000C00B53EC102B04F037FC9FEDBF1B53EC25
:102AA000112B04F087F904F099FB074604F0C5FBED
:102AB00041EC190B53EC1A2B04F026FC53EC182BA9
:102AC00004F0FEFD41EC180B53EC1B2B51EC190BE1
:102AD00004F01AFCDFF8C8A241EC100B4FEA1558BD
:102AE0000125FA4453EC102B51EC180B04F0C0FEF6
:102AF000032DC4E900013DD0C1F30A5005EB451197
:102B0000A8EB00001139814234DA0AEB051BB0EE64
:102B100048AA9BED000BF0EE68AA53EC102B51EC89
:102B2000190B04F0F1FB41EC1B0B51EC1A0B53ECAD
:102B30001B2B04F09DFE41EC180B51EC1A0B53ECCF
:102B4000182B04F095FE53EC1B2B04F091FE9BED2B
:102B5000020B41EC1A0B53EC102B51EC190B04F047
:102B6000D3FB53EC1A2B04F083FE41EC100B6D1CCD
:102B7000B8E70EE0002EA8BF3846BFF628AF94EDA8
:102B8000000B51EC100B04F0D7F8C4E900017842B7
:102B90001DE7C6F3130040F4801EC6F30A50A0F2EE
:102BA000F530471100F01F05C5F12000DDF848B0F1
:102BB00008900020069007900520EC467949002DEA
:102BC00007EB0002794408BF51F8221009D051F8F0
:102BD000223001EB8201AB404A68089922FA01F1E8
:102BE0001943A1FB0E26A1FB0B131A449A4234BFD2
:102BF0000123002303EB06080CEB8003D3E901A6B5
:102C00000E448E4234BF0121002192448A4411B106
:102C1000924502D903E0924501D2012100E0002152
:102C2000C3E901A641444CF82010011EA0F10100A7
:102C3000C4DC029800F10050850F0298DDE90367BB
:102C40008000DDF8148004F0F8FA41EC1A0B3046ED
:102C500004F00AFB9FED541B53EC112B04F054FBC2
:102C600041EC1B0B384604F0FFFA9FED511B53EC6F
:102C7000112B04F049FB41EC180B404604F0F4FA28
:102C80009FED4D1B53EC112B04F03EFB41EC190B57
:102C900051EC180B53EC192B04F08CF853EC1B2B54
:102CA00004F088F853EC1A2B04F084F8CDE90801FD
:102CB000002008909DED080B53EC1A2B51EC100BE3
:102CC00004F0D6FD53EC1B2B04F0D2FD53EC182B73
:102CD00004F0CEFD53EC192B04F0F2FC9FED381BF1
:102CE00053EC112B04F010FB9FED370B41EC180B4C
:102CF00053EC102B9DED080B51EC100B04F004FB72
:102D000053EC182B04F056F89FED310B41EC180BE7
:102D100053EC102B9DED080B51EC100B04F0F4FA62
:102D200053EC182B04F046F841EC100B139810F0FC
:102D3000004F06D06D4251EC100B03F0FDFF41EC4B
:102D4000100B284684ED000B41E600000000000057
:102D50000000000000000000FB21E93F7CD9024098
:102D600000004054FB21F93F3163621A61B4D03D49
:102D7000FB21F93F000000000000601A61B4D03D63
:102D80007370032E8A19A33BFB2139410000000018
:102D900083C8C96D305FE43F000000000000E03FE1
:102DA0004252000090510000000000000000103E60
:102DB000000000000000103C000000000000103A7D
:102DC000182D4454FB21F93D3326A611460B113C26
:102DD00000000054FB21F93D10B52DED040B2DED45
:102DE000088B82B0B0EE419AF0EE619A0B9820F019
:102DF00000449FED4BABB4F1795F11DA9DED0A0B06
:102E000051EC100B04F0EAF9002801BFB0EE4A0AB9
:102E1000F0EE6A0A02B0BDEC088B04BF04B010BD2E
:102E20009DED0A0B53EC102B51EC100B04F06CFAD7
:102E300041EC180B3C480621B0EE480AF0EE680A57
:102E4000784400F081F853EC182B51EC100B04F08F
:102E50005BFA9DED0A0B41EC1B0B53EC192B51EC6B
:102E6000100B04F051FA41EC190B53EC1B2B51ECF5
:102E7000180B04F049FA53EC192B04F0F9FC9FED00
:102E80002C0B41EC190B53EC102B51EC180B04F0EC
:102E90003BFA41EC100B2848844210DA53EC192B12
:102EA00051EC100B04F0E4FC53EC1A2B04F008FC7A
:102EB00041EC100B02B0BDEC088B04B010BD1F48F4
:102EC000A042BCBF9FED1E1B8DED001B06DBA4F5D1
:102ED00000100190002000909DED001B51EC100BA4
:102EE00053EC112B04F0C4FC9DED000B41EC180BCE
:102EF00053EC102B51EC1A0B04F0BAFC41EC1A0BFA
:102F000053EC192B51EC180B04F0B2FC53EC1A2BB8
:102F100004F0D6FB41EC100BCCE7000000000000F1
:102F2000000000000000F03FAC4E00000000000078
:102F3000000000000000E03F3333D33F0000E93FD2
:102F4000000000000000D23F70B504462DED028B5A
:102F50004D1E00EBC500B0EE408AF0EE608A90EDA9
:102F6000000B35F0060017D053EC182B51EC100B6A
:102F700004F0CAF941EC100B6D1E04EBC50090ED96
:102F8000001B51EC100B53EC112B03F013FF41EC21
:102F9000100B35F00600E7D1022D36D0042D1CD0E1
:102FA000062D1CBFBDEC028B70BD53EC182B51ECF1
:102FB000100B04F0A9F994ED0A1B53EC112B03F04C
:102FC000F9FE53EC182B04F09FF994ED081B53EC19
:102FD000112B03F0EFFE41EC100B53EC182B51ECCE
:102FE000100B04F091F994ED061B53EC112B03F038
:102FF000E1FE53EC182B04F087F994ED040B53EC2D
:10300000102B03F0D7FE41EC100B53EC182B51ECB6
:10301000100B04F079F994ED021B53EC112B03F023
:10302000C9FE53EC182B04F06FF994ED001B53EC20
:10303000112B03F0BFFEBDEC028B41EC100B70BDF9
:1030400031B504462DED040B2DED0A8BB0EE41BADF
:10305000F0EE61BA0B989DED0A0B20F00040B0F144
:10306000795F0DDA51EC100BFEF76FFC042808BFF6
:1030700000F0CAF89DED0A0BBDEC0A8B05B030BD1F
:1030800053EC102B51EC100B04F03EF941EC180BF3
:103090009DED0A0B53EC182B51EC100B04F034F996
:1030A00041EC190B2C48B0EE480AF0EE680A0521F5
:1030B0007844FFF749FF9FED2ACBB0EE40AAF0EE2F
:1030C00060AA9CB353EC1C2B51EC190B04F01CF9B7
:1030D00041EC1C0B53EC1A2B51EC190B04F014F9B6
:1030E0009FED210B41EC190B53EC102B51EC1B0BFA
:1030F00004F00AF953EC192B04F0BAFB53EC182B2B
:1031000004F002F953EC1B2B04F0B2FB53EC1C2B24
:1031100004F0AEFB9DED0A1B53EC112B04F0D0FA2A
:10312000BDEC0A8B05B041EC100B30BDFFE753EC52
:103130001A2B51EC180B04F0E7F853EC1C2B03F09E
:1031400039FE53EC192B04F0DFF89DED0A1B53EC0C
:10315000112B03F02FFEE3E73C4D000000000000C0
:10316000495555555555C5BF000000000000E03FCA
:103170009FED070B10B553EC102B9FED070B51EC97
:10318000100B03F0D3FE41EC100B10BD000000004B
:103190000000000000000000000000000000F03F00
:1031A00010B553EC102B51EC100B03F003FE41EC67
:1031B000100B10BD10B553EC112B51EC100B03F09C
:1031C000F9FD41EC100B10BD9FED050B10B553EC54
:1031D000102B51EC100B03F0A9FE41EC100B10BDAD
:1031E00000000000000000009FED050B10B553EC3F
:1031F000102B51EC100B04F087F841EC100B10BDB4
:1032000000000000000000709FED050B10B553ECAE
:10321000102B51EC100B04F077F841EC100B10BDA3
:10322000000000000000001030380A2801D2012000
:1032300070470020704700BF7047000030B52DED8B
:10324000060B2DED088B87B00825B7EE080AF0EEC7
:10325000409A9FED400AB0EE408AB6EE000AF0EECA
:10326000408A012454E000EE104AF8EEC00AB2EEA3
:10327000001A80EE810AF7EE080A20EE200AB0EE6E
:10328000409AF0EE491A9DED141ADDED130A9DEDFA
:10329000120A03F0F0FC8DED040ACDED050A8DED68
:1032A000061ADDED062A9DED052ADDED041A9DEDD9
:1032B000111ADDED100A9DED0F0A03F044FC8DEDAF
:1032C000010ACDED020A8DED031A9DED031ADDED25
:1032D000020A9DED010A03F031F979EE400AB0EEE1
:1032E000480A08EEA00AB0EE408A18EE900A04F0F0
:1032F000A9FB41EC1B0B9FED180B53EC102B04F0BA
:1033000003F841EC1A0B03F023FD08EE900A641C4D
:10331000082CA8DD18EE100A04F094FB41EC1B0BFE
:103320009FED0F0B53EC102B04F0CAF941EC1A0B74
:1033300003F00EFD09EE100AB7EE001ADFED050AE4
:10334000B0EE490A00F010F807B0BDEC088B06B0EB
:1033500030BD000000000000333333333333E33F2C
:10336000000000000000F03FF0EE401AF4EEE01A1A
:10337000F1EE10FA02D2B0EE600A7047F4EEC11A14
:10338000F1EE10FA02DDB0EE410AF6E7B0EE610AA6
:10339000F3E7000000B52DED080B2DED048B8DB08B
:1033A000B0EE438AF0EE638ADDED162A9DED152A14
:1033B000DDED141A9DED131ADDED120A9DED110AD3
:1033C00000F0F6F8B0EE409AF0EE491A9DED161AAC
:1033D000DDED150A9DED140A03F04DFC8DED0A0A92
:1033E000CDED0B0A8DED0C1ADDED0C2A9DED0B2AAF
:1033F000DDED0A1A9DED131ADDED120A9DED110A9D
:1034000000F0B4F8F0EE409ADFED270A9FED260AAF
:10341000FEF779FA8DED0B0ACDED0C0AF0EE480AB5
:10342000B0EE680AFEF76FFA8DED090ACDED0A0AD3
:10343000F0EE490AB0EE690AFEF765FA8DED070A6B
:10344000CDED080ADDED080A9DED070A03F0D4FA78
:103450008DED050ACDED060ADDED0A1A9DED091A7E
:10346000DDED060A9DED050A03F039FB8DED030A3B
:10347000CDED040ADDED0C1A9DED0B1ADDED040A0D
:103480009DED030A03F002FB8DED010ACDED020A6A
:10349000DDED020A9DED010A00F039F90DB0BDEC39
:1034A000048B08B000BD00000000000010B5044609
:1034B0006FF00400FEF7CCF8E11704EB5171C1F393
:1034C000C701074A11701046007800EB4001C1EBBC
:1034D000C0104FF6FF7101EAC0000249088010BD1C
:1034E000080000200A00002070B504464FF4077061
:1034F00094FBF0F0C6B24FF4077094FBF0F100FBC0
:10350000114085B205E04FF4077000F009F8701E15
:10351000C6B2002EF7D115B1284600F001F870BDF3
:103520000146114A12884A434FF0E0235A610022B3
:103530009A611A46126942F001021A6100BF4FF007
:10354000E022106900F001021AB100F48032002A72
:10355000F5D04FF0E022126922F001024FF0E02393
:103560001A6100229A6170470A00002000B52DED13
:10357000060B83B0DDED082A9DED072ADDED061A66
:103580009DED051ADDED040A9DED030A03F08FFBA6
:103590008DED000ACDED010A8DED021A9DED021AA6
:1035A000DDED010A9DED000A00F082F809B000BDD2
:1035B0002DED060B9DED000ADDED030A20EE200A3D
:1035C000DDED010A9DED041A00EE810ADDED020A2F
:1035D0009DED051A00EE810A06B0704710B52DED7D
:1035E000040B2DED028B9DED041ADDED030A9DED1C
:1035F000020A00F01FF8B0EE408A9DED041ADDEDDE
:10360000030A9DED020A01F079F8F0EE408AF0EE2F
:10361000480A00F0ECFFBDEC028B1FBD82B0CDE983
:10362000000121F0004001909DED000B02B051EC33
:10363000100B704710B52DED040B2DED048B9DED97
:10364000050A10EE101A084604F0FCF941EC190BBB
:103650009FED070B53EC102B03F0ACFB41EC180B68
:1036600003F076FB00EE100ABDEC048B1FBD0000DA
:10367000CDCCCCCCCCCC064000BF054A128802F0A1
:103680004002002AF9D0C2B2014B9A807047000074
:103690000010014010B52DED028BB0EE408AB0EE67
:1036A000480AFEF7DBF938EE400ABDEC028B10BD8C
:1036B00010B52DED040B2DED048B9DED040A20EECD
:1036C000000ADDED050A9DED051A00EE810ADDED2B
:1036D000060A9DED061A00EE810A10EE101A084641
:1036E00004F0B0F941EC190BB0EE490AF0EE690AAA
:1036F000FFF7FAF8B0EE408AF0EE608A51EC180B52
:1037000003F026FB00EE100ABDEC048B1FBD10B5C4
:103710002DED020B2DED048B9DED040A20EE000A29
:10372000DDED050A9DED051A00EE810A10EE101A76
:10373000084604F087F941EC190BB0EE490AF0EEA7
:10374000690AFFF7D1F8B0EE408AF0EE608A51ECDA
:10375000180B03F0FDFA00EE100ABDEC048B1CBD43
:103760004FF4A060FDF7AAFBA820FFF79FFE4FF4DF
:10377000E13003F0EBF8FDF789F8FDF700FAFDF70B
:10378000F1FCFCF741FF4FF400410B48FDF77AF8DC
:10379000FDF7E2F90446214608A0FCF76BFD09E0BD
:1037A000FDF7A6FE0C4AC821F020FDF7ACF90BA0EE
:1037B000FCF760FDF4E70000000402407468652037
:1037C0006D616E756661637475726520696420252C
:1037D000303278200D0A00002400002046696E690E
:1037E00073682061206672616D652E0D0A0000000D
:1037F00000B52DED020B2DED028BBDB0DDED400AC5
:103800009FEDFE1A80EE810A8DED110A119804F0E9
:1038100019F99FEDFB0B53EC102BCDE912019DED37
:10382000120B51EC100B03F06FFD9FEDF70B53ECF7
:10383000102BCDE914019DED140B51EC100B04F08D
:1038400017F89FEDF30B53EC102BCDE916019DED0E
:10385000160B51EC100B03F057FDCDE918019DED4F
:10386000180B51EC100B03F073FA1B90DDED3F0ABF
:103870009FEDE91A80EE810A8DED110A119804F08E
:10388000E1F89FEDDF0B53EC102BCDE912019DED1C
:10389000120B51EC100B03F037FD9FEDDB0B53ECDB
:1038A000102BCDE914019DED140B51EC100B03F01E
:1038B000DFFF9FEDD70B53EC102BCDE916019DEDEB
:1038C000160B51EC100B03F01FFDCDE918019DED17
:1038D000180B51EC100B03F03BFA1A90DDED1B0AAC
:1038E0009DED1A0AFEF70FF88DED3B0ACDED3C0A6F
:1038F0009DED3B0AF7EE000A20EE200A8DED3B0A13
:10390000DDE93B01CDE93901B3EE040AC34880ED9E
:10391000000AB9EE0E1ADFEDC20A9FEDC20AFEF7E9
:1039200000F88DED360ACDED370A8DED381A9DED94
:103930003C0A8DED180A9DED3B0A8DED170A9FEDAF
:10394000BA1ADDED180A9DED170AFDF7EAFF8DEDB5
:10395000190ACDED1A0A8DED1B1A9DED1B1ADDED2E
:103960001A0A9DED190A00F09EFE8DED330ACDED89
:10397000340A8DED351AB3EE040A8DED320AB1EE3C
:10398000000A8DED310A9FEDA70A8DED300A002067
:103990001B905AE0DDED311A9DED351ADDED340A4C
:1039A0009DED330A03F067F98DED180ACDED190A84
:1039B0008DED1A1ADDED1A2A9DED192ADDED181A82
:1039C0009DED381ADDED370A9DED360A03F0BBF8A0
:1039D0008DED150ACDED160A8DED171A9DED171A0E
:1039E000DDED160A9DED150AFFF7F8FD8DED300AA5
:1039F000309804F027F89FED8D0B53EC102BCDE998
:103A000018019DED180B51EC100B03F041FC00D296
:103A10001EE0319804F016F89FED860B53EC102B46
:103A2000CDE918019DED180B51EC100B03F012FEBF
:103A300000D20DE09DED310ADDED300A30EE200AB6
:103A40008DED310A1B98401C1B901B986428A1DB4C
:103A500000BFB8EE001AF0EE000AB7EE000AFDF75C
:103A600060FF8DED190ACDED1A0A8DED1B1A9DED43
:103A70001B1ADDED1A0A9DED190A00F014FE8DEDFA
:103A8000160ACDED170A8DED181ADFED6C1A9DEDB3
:103A9000181ADDED170A9DED160A03F0ECF88DED0E
:103AA000130ACDED140A8DED151ADDED311A9DEDD9
:103AB000351ADDED340A9DED330A03F0DCF88DEDA7
:103AC000100ACDED110A8DED121ADDED122A9DEDD1
:103AD000112ADDED101A9DED381ADDED370A9DED46
:103AE000360A03F030F88DED0D0ACDED0E0A8DED9E
:103AF0000F1ADDED152A9DED142ADDED131A9DED4B
:103B00000F1ADDED0E0A9DED0D0A03F01CF88DED88
:103B10002D0ACDED2E0A8DED2F1A9DED2F1ADDED1C
:103B20002E0A9DED2D0AFFF759FD8DED2C0A9DED16
:103B30002C0ADDED300A30EE600A8DED130A139881
:103B400003F080FF9FED3E0B53EC102BCDE91401E9
:103B50009DED140B51EC100B03F0D6FB9FED3A0BCF
:103B600053EC102BCDE916019DED160B51EC100B0B
:103B700003F0DCF99FED320B53EC102BCDE918016B
:103B80009DED180B51EC100B03F014F9CDE91A015F
:103B90009DED1A0B51EC100B03F0DAF82B90DDEDD4
:103BA000311A9DED351ADDED340A9DED330A03F02F
:103BB00062F88DED190ACDED1A0A8DED1B1ADDEDB7
:103BC0001B2A9DED1A2ADDED191A9DED381ADDED3F
:103BD000370A9DED360A02F0B6FF8DED280ACDEDCD
:103BE000290A8DED2A1A9DED2A1ADDED290A9DED8F
:103BF000280A02F0AFFC8DED250A29E000004843B9
:103C00000000000000000040000000000000F03F45
:103C1000000000000000E83F0000704300000020AA
:103C2000CDCCCCBD000000006666E63F2D431CEB0A
:103C3000E2361A3F0000000000002440CDCC4C3D8D
:103C4000000000000000E03F9A9999999999A93FD6
:103C5000CDED260A8DED271A9FEDFE1ADFEDFE0A47
:103C6000B7EE000AFDF75DFE8DED220ACDED230AC9
:103C70008DED241A22A807C81FAB07C3319803F0A3
:103C8000E1FE1FED140B53EC102BCDE91A019DED55
:103C90001A0B51EC100B03F0FBFA7DD2EF4890EDBC
:103CA000001ADFEDEF0A1FED210A02F0CBFD8DEDCA
:103CB0001A0A9DED1A1AF7EE000A9FEDEA0A00F0C3
:103CC000A3FC8DED1B0A9DED1B1ADDED1B0A9DED7E
:103CD0001B0AFDF726FE8DED1F0ACDED200A8DEDA6
:103CE000211A9DED2A1ADDED290A9DED280AFFF71C
:103CF000A1FCB0EE408A9DED2A1ADDED290A9DED6A
:103D0000280A00F0FBFCB4EEC08AF1EE10FA7CD277
:103D10001FED3C1A5FED3D0A1FED3E0AFDF701FE67
:103D20008DED180ACDED190A8DED1A1AB7EE001AAD
:103D3000F7EE000AB7EE000AFDF7F3FD8DED150A68
:103D4000CDED160A8DED171A9DED3A0A8DED040A98
:103D50009DED390A8DED030ADDED040A9DED030AA0
:103D6000FDF7D1FD8DED130ACDED140ADDED140A3A
:103D70009DED130AFFF7CBFC8DED050A059803F0C6
:103D800061FE9FEDB90B53EC102BCDE906019DEDC3
:103D9000060B51EC100B00E0C8E203F0C7F89FEDF2
:103DA000B40B53EC102BCDE908019DED080B51EC41
:103DB000100B03F085FCCDE90A019DED0A0B51ECD7
:103DC000100B02F0C5FF0C90DDED0C1A9DED241ACE
:103DD000DDED230A9DED220A02F099FE8DED100A19
:103DE000CDED110A8DED121A9FED9E3ADDED172AE9
:103DF0009DED162ADDED151A9DED121ADDED110A65
:103E00009DED100A00F00BFC00E019E08DED0D0AAD
:103E1000CDED0E0A8DED0F1ADDED1A2A9DED192A52
:103E2000DDED181A9DED0F1ADDED0E0A9DED0D0A60
:103E300002F0ABFE8DED1F0ACDED200A8DED211AAB
:103E4000DDED2B1A9DED211ADDED200A9DED1F0AF7
:103E500002F011FF8DED1F0ACDED200A8DED211A24
:103E60009DED260AB1EE400A8DED0E0AB7EE001A5E
:103E70005FED940A9DED0E0AFFF776FA8DED0F0ABD
:103E80000F9803F0DFFD1FEDA21BCDE910019DEDA2
:103E9000100BFDF79DFE8DED120B9FED770B53EC94
:103EA000102B9DED120B51EC100B03F03FF8CDE9F8
:103EB00014019DED140B51EC100B02F049FF17900B
:103EC000DDED171A9DED241ADDED230A9DED220A82
:103ED00002F0D1FE8DED180ACDED190A8DED1A1AFA
:103EE000DDED1A2A9DED192ADDED181A9DED211A36
:103EF000DDED200A9DED1F0A02F025FE8DED1F0A63
:103F0000CDED200A8DED211A2698179003F09AFD29
:103F10009FED5B0B53EC102BCDE918019DED180BB9
:103F200051EC100B03F0B4F979D29DED290AB1EEF2
:103F3000400A8DED070A079803F084FD9FED520BB0
:103F400053EC102BCDE908019DED080B51EC100B43
:103F500003F08EFCCDE90A019DED0A0B51EC100B2C
:103F600002F0F6FEB7EE001A5FEDD20A0C909DED5E
:103F70000C0AFFF7F9F98DED0D0A0D9803F062FDBB
:103F80009FED431BCDE90E019DED0E0BFDF720FECD
:103F90008DED100B9FED340B53EC102B9DED100BA2
:103FA00051EC100B02F0C2FFCDE912019DED120B96
:103FB00051EC100B02F0CCFE9FED261ADFED260A25
:103FC000B7EE000A1490FDF7ACFC8DED180ACDEDAC
:103FD000190A8DED1A1ADDED141A9DED1A1ADDED90
:103FE000190A9DED180A02F046FE8DED150ACDED79
:103FF000160A8DED171ADDED172A9DED162ADDED57
:10400000151A9DED211ADDED200A9DED1F0A02F023
:104010009AFD8DED1F0ACDED200A8DED211A26980F
:10402000179003F00FFD9FED1C0B53EC102BCDE907
:1040300018019DED180B51EC100B03F00BFB7AD21D
:10404000DDED272A9DED262ADDED251A9DED2A1AA4
:1040500026E00000EC51383ECDCCCC3E04000020E0
:104060000AD7233CCDCCCC3D000000000000084026
:104070009A9999999999B93F000000000000F83F7A
:104080001EA7E8482EFFEF3FCDCCCCCCCCCCFC3FDC
:1040900000000000000010401D774A07EBFFEF3FD3
:1040A000DDED290A9DED280AFFF7C8F88DED150A08
:1040B000159803F0C7FC9FEDFE1BCDE916019DEDA1
:1040C000160BFDF785FD8DED180B9DED180B51ECD2
:1040D000100B02F03DFE1A90DDED1A1A9DED211A2B
:1040E000DDED200A9DED1F0A02F0C5FD8DED1F0AD2
:1040F000CDED200A8DED211A9DED2A0A8DED150AD0
:104100009DED280A8DED140ADDED150A9DED140ACA
:10411000FDF7F9FB8DED190ACDED1A0ADDED1A0A4E
:104120009DED190AFFF7F3FA8DED160A9DED161AAB
:10413000F0EE000A00E020E09FEDDF0A02F082FBD3
:104140008DED170A9DED171AF7EE000A9FEDDB0AB9
:1041500000F05AFA8DED180ADDED181A9DED211ABE
:10416000DDED200A9DED1F0A02F085FD8DED1F0A91
:10417000CDED200A8DED211AD7E0DDED272A9DED4A
:10418000262ADDED251A9DED351ADDED340A9DED6B
:10419000330A02F0F9F88DED180ACDED190A8DED0C
:1041A0001A1AFFEE001A9DED351ADDED340A9DED69
:1041B000330A02F060FD8DED150ACDED160A8DED86
:1041C000171ADDED272A9DED262ADDED251A9DED36
:1041D000171ADDED160A9DED150AFFF7E9F98DEDC9
:1041E000050A059803F02EFC9FEDB10B53EC102B44
:1041F000CDE906019DED060B51EC100B03F060FAC2
:10420000CDE908019DED080B51EC100B02F0A0FD6B
:104210000A909DED0A1AF7EE000A9FEDA70AFFF734
:10422000A3F88DED0B0A0B9803F00CFC9FEDA41B7B
:10423000CDE90C019DED0C0BFDF7CAFC8DED100BCB
:104240009DED190A8DED0A0ADDED0A0AB6EE000AA7
:1042500002F056FB8DED0B0A0B9803F0F3FB9FED7C
:104260009A0B53EC102BCDE90C019DED0C0B51EC8E
:10427000100B03F049F8CDE90E019DED100B53EC46
:10428000102B9DED0E0B51EC100B03F03DF8CDE91A
:1042900012019DED120B51EC100B02F059FD149020
:1042A000DDED141A9DED211ADDED200A9DED1F0AAA
:1042B00002F02DFC8DED1F0ACDED200A8DED211AA7
:1042C000DDED272A9DED262ADDED251A9DED2A1A22
:1042D000DDED290A9DED280AFEF7B0FF8DED110AEC
:1042E000119803F0AFFB9FED761BCDE912019DED18
:1042F000120BFDF76DFC8DED140B9DED140B51ECC5
:10430000100B02F025FD1790DDED171A9DED211A17
:10431000DDED200A9DED1F0A02F0ADFC8DED1F0AB8
:10432000CDED200A8DED211A00BFA3E09FED621AAA
:10433000DFED610A9FED600AFDF7F3FA8DED190AD2
:10434000CDED1A0A8DED1B1AB7EE001AF7EE000A32
:10435000B7EE000AFDF7E5FA8DED160ACDED170A66
:104360008DED181A9DED3A0A8DED020A9DED390A80
:104370008DED010ADDED020A9DED010AFDF7C3FA9C
:104380008DED140ACDED150ADDED150A9DED140A2B
:10439000FFF7BDF98DED030A039803F053FB1FED02
:1043A000CE0B53EC102BCDE904019DED040B51EC29
:1043B000100B02F0BBFD1FEDD20B53EC102BCDE91F
:1043C00006019DED060B51EC100B03F079F9CDE9D8
:1043D00008019DED080B51EC100B02F0B9FC0A909E
:1043E000DDED0A1A9DED241ADDED230A9DED220A6A
:1043F00002F08DFB8DED110ACDED120A8DED131A31
:104400001FEDE83ADDED182A9DED172ADDED161AAD
:104410009DED131ADDED120A9DED110A00F0FFF873
:104420008DED0E0ACDED0F0A8DED101ADDED1B2A74
:104430009DED1A2ADDED191A9DED101ADDED0F0A1A
:104440009DED0E0A02F0A1FB8DED0B0ACDED0C0ADD
:104450008DED0D1ADFED1E1A9DED0D1ADDED0C0A26
:104460009DED0B0A02F007FC8DED1F0ACDED200A31
:104470008DED211A9FED101ADFED0F0A9FED0E0A48
:10448000FDF74FFA8DED190ACDED1A0A8DED1B1AC5
:10449000DDED1B2A9DED1A2ADDED191A9DED211A7D
:1044A000DDED200A9DED1F0A02F06FFB12E0000017
:1044B000000000000000F03F000000003333333FF5
:1044C00000000000000000409A9999999999C93F0D
:1044D0003D0A573F8DED1C0ACDED1D0A8DED1E1ACC
:1044E000DFED3A1A9DED1E1ADDED1D0A9DED1C0A49
:1044F00002F00DFB8DED1C0ACDED1D0A8DED1E1A8F
:104500009DED1C0A8DED1B0A9DED1B0AFEF729FA95
:104510008DED1C0A9DED1D0A8DED1B0A9DED1B0AFC
:10452000FEF71FFA8DED1D0A9DED1E0A8DED1B0A8B
:104530009DED1B0AFEF715FA8DED1E0AB7EE001A67
:10454000F7EE000AB7EE000AFDF7EBF98DED190A58
:10455000CDED1A0A8DED1B1ADDED1B2A9DED1A2AF1
:10456000DDED191A9DED1E1ADDED1D0A9DED1C0AEB
:1045700002F046FB8DED1C0ACDED1D0A8DED1E1AD5
:104580009DED1C0ADFED120A20EE200ABCEEC00AE7
:1045900010EE100A01049DED1D0ADFED0D0A20EE5C
:1045A000200ABCEEC00A10EE100A41EA00209DED80
:1045B0001E0ADFED070A20EE200ABCEEC00A10EE4C
:1045C000101A08433DB0BDEC028B0CBD0AD7233C4A
:1045D00000007F43B0EE401AB4EEE01AF1EE10FA9C
:1045E00002DDB0EE410A7047B0EE600AFBE7B0EEC4
:1045F000401AB4EEE01AF1EE10FA02D2B0EE410A1F
:104600007047B0EE600AFBE7F0EE401AB7EE000A22
:1046100030EE410A20EE210A00EE810A704700B513
:104620002DED080B89B0F0EE431A9DED0E1ADDED6D
:104630000D0A9DED0C0A02F01EFB8DED060ACDED74
:10464000070A8DED081AB7EE000A30EE430AF0EEC5
:10465000401A9DED0B1ADDED0A0A9DED090A02F0E4
:104660000AFB8DED030ACDED040A8DED051ADDED93
:10467000082A9DED072ADDED061A9DED051ADDEDF0
:10468000040A9DED030A02F05EFA8DED000ACDEDFD
:10469000010A8DED021A9DED000ADDED010A9DED86
:1046A000021A11B000BD10B52DED040B2DED028BDB
:1046B0009DED041ADDED030A9DED020AFEF7F8FFF9
:1046C000B0EE408A9DED020AC0EE080ACDED020A66
:1046D0009DED030AC0EE080ACDED030A9DED040A24
:1046E000C0EE080ACDED040A9DED020ADDED030AD5
:1046F0009DED041ABDEC028B1FBD000000B52DED31
:10470000040BB3B09FEDFE0A8DED320A9DED350A24
:104710008DED100A9DED330A8DED0F0ADDED100AC7
:104720009DED0F0AFDF7EFF88DED150ACDED160A98
:10473000329803F087F9CDE906019DED060BFDF7F0
:104740001FF98DED080B9DED080B51EC100B02F0DD
:10475000F3FACDE90A019DED0A0B51EC100B02F0C2
:10476000F7FA1090329803F06DF9CDE908019DED4C
:10477000080BFEF755F88DED0A0B9DED0A0B51EC79
:10478000100B02F0E5FA0F90329803F05BF9CDE9D7
:1047900008019DED080BFEF743F88DED0A0B9DED2A
:1047A0000A0B51EC100B02F0D3FA0E90329803F082
:1047B00049F9CDE908019DED080BFDF7E1F88DED14
:1047C0000A0B9DED0A0B51EC100B02F0C1FA0D9093
:1047D000DDED101A9DED0F1ADDED0E0A9DED0D0AAF
:1047E000FCF7EEFA8DED110ACDED120A8DED131ADC
:1047F000CDED141ADDED162A9DED152ADDED141A06
:104800009DED131ADDED120A9DED110AFCF7F2FA87
:104810008DED300ACDED310A9DED300A8DED330A74
:104820009DED310A8DED350AB648006803F00AF9AE
:104830009FEDB50B53EC102BCDE912019DED120B42
:1048400051EC100B02F060FDCDE914019DED140B4D
:1048500051EC100B02F07CFA2F903498119003F079
:10486000F1F89FEDAB0B53EC102BCDE912019DED50
:10487000120B51EC100B02F09DFACDE914019DEDE5
:10488000140B51EC100B02F063FA34909DED340AD6
:104890008DED100A9DED330A8DED0F0ADDED100A46
:1048A0009DED0F0AFDF72FF88DED150ACDED160AD7
:1048B0002F9803F0C7F89FED980B53EC102BCDE920
:1048C00008019DED080B51EC100B02F073FACDE9D5
:1048D0000A019DED0A0BFDF753F88DED0C0B9FEDD2
:1048E000900B53EC102B9DED0C0B51EC100B02F0C8
:1048F0000BFDCDE90E019DED0E0B51EC100B02F0FE
:1049000027FA10909DED100A01F098FD8DED110A27
:10491000CDED120A8DED131ACDED141ADDED162A28
:104920009DED152ADDED141A9DED131ADDED120A29
:104930009DED110AFCF75EFA8DED300ACDED310ADE
:104940009DED300A8DED330A9DED310A8DED340A6F
:104950003498119003F076F89FED6D0B53EC102B0B
:10496000CDE912019DED120B51EC100B02F080FF0E
:10497000CDE914019DED140B51EC100B02F0E8F998
:10498000349033A90EC92CA80EC033A90EC929A88A
:104990000EC09DED2A0A8DED100A9DED290A8DEDC0
:1049A0000F0ADDED100A9DED0F0AFCF7ACFF8DED4F
:1049B000150ACDED160A2F9803F044F8CDE90A0147
:1049C0009DED0A0BFCF7DCFF8DED0C0B9FED560BFC
:1049D00053EC102B9DED0C0B51EC100B02F094FCE2
:1049E000CDE90E019DED0E0B51EC100B02F0B0F96C
:1049F00010909DED100A01F021FD8DED110ACDED15
:104A0000120A8DED131ACDED141ADDED162A9DED67
:104A1000152ADDED141A9DED131ADDED120A9DED38
:104A2000110AFCF7E7F98DED300ACDED310A9DED65
:104A3000300A8DED290A9DED310A8DED2A0A33A940
:104A40000EC926A80EC09DED270A8DED100A9DED1A
:104A5000260A8DED0F0ADDED100A9DED0F0AFCF719
:104A600052FF8DED150ACDED160A9DED351ADDEDDF
:104A7000340A9DED330AFEF71BFE8DED030A039801
:104A800002F0E0FF9FED2A0B53EC102BCDE904015F
:104A90009DED040B51EC100B02F048FACDE9080132
:104AA0002F9802F0CFFF9FED240B53EC102BCDE994
:104AB00004019DED040B51EC100B02F0D9FECDE981
:104AC00006019DED080B53EC102B9DED060B51ECF0
:104AD000100B02F0CDFECDE90A019DED0A0BFCF7AB
:104AE0004FFF8DED0C0B9FED160B53EC102B9DED36
:104AF0000C0B51EC100B02F007FCCDE90E0123E08A
:104B0000ABAA4A4000000020333333333333034031
:104B10006666666666660240000000000000F03FC0
:104B20007B14AE47E17AA43F9A9999999999B93F34
:104B30000000000000000040000000000000000035
:104B4000A4703D0AD7A3C03F9DED0E0B51EC100B96
:104B500002F0FEF810909DED100A01F06FFC8DED53
:104B6000110ACDED120A8DED131ACDED141ADDEDFB
:104B7000162A9DED152ADDED141A9DED131ADDEDB3
:104B8000120A9DED110AFCF735F98DED300ACDEDD5
:104B9000310A9DED300A8DED260A9DED310A8DED2D
:104BA000270A9FEDFE0A8DED250A3398119002F039
:104BB00049FFCDE912019DED120BFCF745FF8DED8C
:104BC000140B9DED140B51EC100B02F0C1F8339057
:104BD0002998119002F036FFCDE912019DED120BDC
:104BE000FCF732FF8DED140B9DED140B51EC100B07
:104BF00002F0AEF829902698119002F023FFCDE93B
:104C000012019DED120BFCF71FFF8DED140B9DEDB6
:104C1000140B51EC100B02F09BF826909FEDE01A5C
:104C2000DFEDE00AB6EE080AFCF77BFE8DED140A14
:104C3000CDED150A8DED161ADDED162A9DED152A1E
:104C4000DDED141A9DED2B1ADDED2A0A9DED290AE2
:104C500002F02DF88DED110ACDED120A8DED131A2B
:104C60009DED131ADDED120A9DED110AFEF720FDF0
:104C70008DED030A039802F0E5FE9FEDCB0B53EC9C
:104C8000102BCDE904019DED040B51EC100B02F04B
:104C9000EFFDCDE906019DED060B51EC100B02F086
:104CA00057F89FEDBF1ADFEDBF0ABEEE080A0A9063
:104CB000FCF737FE8DED0E0ACDED0F0A8DED101AC3
:104CC000DDED102A9DED0F2ADDED0E1A9DED2B1A5C
:104CD000DDED2A0A9DED290A01F0E9FF8DED0B0AB1
:104CE000CDED0C0A8DED0D1A9DED0D1ADDED0C0AC2
:104CF0009DED0B0AFEF7DCFC8DED030A039802F034
:104D0000A1FE9FEDAB0B53EC102BCDE904019DED03
:104D1000040B51EC100B02F0ABFDCDE906019DED4B
:104D2000060B51EC100B02F013F8B0EE001A0990CC
:104D3000DDED0A0A9DED090A01F004FD8DED250A5D
:104D40009FED971ADFED9C0A9FED960AFCF7E9FDAF
:104D50008DED140ACDED150A8DED161ADDED162A2E
:104D60009DED152ADDED141A9DED2B1ADDED2A0AB5
:104D70009DED290A01F09BFF8DED110ACDED120A80
:104D80008DED131A9DED131ADDED120A9DED110A3A
:104D9000FEF78EFC8DED0B0A0B9802F053FE9FED93
:104DA000870B53EC102BCDE90C019DED0C0B51EC56
:104DB000100B02F05DFDCDE90E019DED0E0B51ECE7
:104DC000100B01F0C5FF9FED7F1A1090DDED100A6A
:104DD0009DED250A01F0B6FC8DED250A259802F01F
:104DE00031FE1FEDAF0B53EC102BCDE912019DED01
:104DF000120B51EC100B01F0DDFFCDE914019DED1C
:104E0000140B51EC100B01F0A3FF25909DED280A27
:104E10008DED0A0A9DED270A8DED090A9DED260A02
:104E20008DED080A9DED0A1ADDED090A9DED080ACF
:104E3000FCF777FD8DED140ACDED150A8DED161AF0
:104E40009DED270A8DED090A9FED5F1ADFED550AEA
:104E50009DED090AFEF788FA8DED0A0A9FED511AB9
:104E6000DDED0A0A9FED590AFCF75BFD8DED110A95
:104E7000CDED120A8DED131ADDED162A9DED152AE2
:104E8000DDED141A9DED131ADDED120A9DED110AE8
:104E9000FEF76CFB8DED0B0A0B9802F0D3FD9FED36
:104EA000440B53EC102BCDE90C019DED0C0B51EC98
:104EB000100B02F0DDFCCDE90E019DED0E0B51EC67
:104EC000100B01F045FF9FED421A1090DDED100A26
:104ED0009DED250A01F036FC8DED250ABEEE001A87
:104EE000DFED3C0A9FED390AFCF71BFD8DED140A3E
:104EF000CDED150A8DED161ADDED162A9DED152A5C
:104F0000DDED141A9DED281ADDED270A9DED260A28
:104F100001F0CDFE8DED110ACDED120A8DED131AC3
:104F20009DED131ADDED120A9DED110AFEF7C0FB8F
:104F30008DED090A099802F085FD9FED1B0B53ECDE
:104F4000102BCDE90A019DED0A0B51EC100B02F07C
:104F50008FFCCDE90C019DED0C0B51EC100B01F019
:104F6000EBFECDE90E019DED0E0B51EC100B01F0A7
:104F7000EFFE9FED191A1090DDED100A9DED250A48
:104F800001F0CAFB8DED250A9DED350A8DED0A0A6B
:104F90009DED340A8DED090A20E0000000401C461A
:104FA000CDCCCCBD00000000000000000000E03FC0
:104FB0009A9999999999D93FCDCCCC3ECDCCCCCC6E
:104FC000CCCCEC3FCDCCCC3FCDCC0C403333333FBD
:104FD000295C0F3E9A99D93FCDCC4C3E9DED330ACA
:104FE0008DED080A9DED0A1ADDED090A9DED080A0E
:104FF000FCF797FC8DED140ACDED150A8DED161A10
:105000009DED340A8DED090A9FEDFE1ADFEDFE0AD3
:105010009DED090AFEF7A8F98DED0A0A1FED1F1A8A
:10502000DDED0A0A1FED210AFCF77BFC8DED110A6C
:10503000CDED120A8DED131ADDED162A9DED152A20
:10504000DDED141A9DED131ADDED120A9DED110A26
:10505000FEF78CFA8DED0B0A0B9802F0F3FC9FED36
:10506000EB0B53EC102BCDE90C019DED0C0B51EC2F
:10507000100B02F0FDFBCDE90E019DED0E0B51EC86
:10508000100B01F065FE9FEDE31A1090DDED100AA4
:105090009DED250A01F056FB8DED250A2CA807C8C9
:1050A00022AB07C3BEEE080A8DED210ADDED230A0F
:1050B0009DED210A30EEC00A8DED230A9DED240AF4
:1050C0008DED100A9DED230A8DED0F0ADDED100A1E
:1050D0009DED0F0AFCF717FC8DED150ACDED160AB4
:1050E000CD48006802F0AEFC9FEDCC0B53EC102BCA
:1050F000CDE906019DED060B51EC100B02F004F911
:105100009FEDC80B53EC102BCDE908019DED080B6A
:1051100051EC100B01F04EFECDE90A019DED0A0B9A
:10512000FCF72EFC8DED0C0B9FEDC00B53EC102B00
:105130009DED0C0B51EC100B02F0E6F8CDE90E01E1
:105140009DED0E0B51EC100B01F002FE10909DED49
:10515000100A01F073F98DED110ACDED120A8DEDF3
:10516000131ACDED141ADDED162A9DED152ADDED8D
:10517000141A9DED131ADDED120A9DED110AFBF7CD
:1051800039FE8DED1F0ACDED200A9DED1F0A8DED34
:10519000230A9DED200A8DED240ADDED230A9DED05
:1051A000210A30EE800A8DED230A9B48006802F048
:1051B00049FC9FED9A0B53EC102BCDE904019DEDBA
:1051C000040B51EC100B02F09FF89FED9A0B53EC7F
:1051D000102BCDE906019DED060B51EC100B01F0F3
:1051E000E9FDCDE908019DED080BFCF7C9FB8DED4C
:1051F0000A0B9DED0A0B51EC100B01F0A9FD0C9070
:10520000DDED0C0A1FED990AFFF7E4F98DED0D0AAB
:105210000D9802F017FC9FED850B53EC102BCDE998
:105220000E019DED0E0B51EC100B02F06DF8CDE967
:10523000120123980F9002F005FCCDE910019DEDBD
:10524000120B53EC102B9DED100B51EC100B02F0D8
:105250000FFBCDE914019DED140B51EC100B01F087
:1052600077FD23909DED240A8DED0A0A9DED230A1A
:105270008DED090A9DED220A8DED080A9DED0A1AB1
:10528000DDED090A9DED080AFCF74BFB8DED140AD4
:10529000CDED150A8DED161A9DED230A8DED090A47
:1052A000B8EE001ADFED650A9DED090AFEF75CF81D
:1052B0008DED0A0A1FEDC51ADDED0A0A9FED600AA1
:1052C000FCF72FFB8DED110ACDED120A8DED131AAF
:1052D000DDED162A9DED152ADDED141A9DED131A4C
:1052E000DDED120A9DED110AFEF740F98DED0B0A76
:1052F0000B9802F0A7FB9FED530B53EC102BCDE95D
:105300000C019DED0C0B51EC100B02F0B1FACDE944
:105310000E019DED0E0B51EC100B01F019FD9FEDF0
:105320004B1A1090DDED100A9DED250A01F00AFAE6
:105330008DED250A2CA807C822AB07C3DDED230A93
:105340009DED210A30EEC00A8DED230A9DED240A61
:105350008DED100A9DED230A8DED0F0ADDED100A8B
:105360009DED0F0AFCF7CFFA8DED150ACDED160A6B
:105370002948006802F066FB9FED280B53EC102BC8
:10538000CDE906019DED060B51EC100B01F0BCFFC1
:105390009FED2F0B53EC102BCDE908019DED080B71
:1053A00051EC100B01F006FDCDE90A019DED0A0B51
:1053B000FCF7E6FA8DED0C0B9FED1C0B53EC102B5C
:1053C0009DED0C0B51EC100B01F09EFFCDE90E0191
:1053D0009DED0E0B51EC100B01F0BAFC10909DED01
:1053E000100A01F02BF88DED110ACDED120A8DEDAA
:1053F000131ACDED141ADDED162A9DED152ADDEDFB
:10540000141A29E0CDCC8CBFCDCCCCBF3333333391
:105410003333E33F0AD7233D0000002000000000A3
:105420000000004000000000000000009A999999D7
:105430009999B93F4AD8124DFB21F93F666626C0BB
:105440009A99993E333333333333D33FCDCCCC3D6C
:105450004AD8124DFB2109409DED131ADDED120AC9
:105460009DED110AFBF7C6FC8DED1F0ACDED200A5C
:105470009DED1F0A8DED230A9DED200A8DED240A76
:10548000DDED230A9DED210A30EE800A8DED230A21
:10549000FE48006802F0D6FA1FED200B53EC102BEB
:1054A000CDE902019DED020B51EC100B01F02CFF38
:1054B0001FED200B53EC102BCDE904019DED040BE7
:1054C00051EC100B01F076FC1FED1F0B53EC102B71
:1054D000CDE906019DED060B51EC100B01F06AFCC5
:1054E000CDE908019DED080BFCF74AFA8DED0A0B9A
:1054F0009DED0A0B51EC100B01F02AFC0C90DDED38
:105500000C0A9FEDE30AFFF765F88DED0D0A0D9883
:1055100002F098FA1FED3B0B53EC102BCDE90E0176
:105520009DED0E0B51EC100B01F0EEFECDE91201DA
:1055300023980F9002F086FACDE910019DED120B31
:1055400053EC102B9DED100B51EC100B02F090F969
:10555000CDE914019DED140B51EC100B01F0F8FB9B
:105560002390B7EE001AF7EE000ABFEE000AFCF730
:10557000D8F98DED140ACDED150A8DED161A9DEDB5
:10558000240A8DED040A9DED230A8DED030A9DED9D
:10559000220A8DED020A9DED041ADDED030A9DED50
:1055A000020AFCF7BEF98DED110ACDED120A8DED60
:1055B000131ADDED162A9DED152ADDED141A9DED69
:1055C000131ADDED120A9DED110A01F092FB8DED2B
:1055D0000E0ACDED0F0A8DED101A9DED230A8DED0B
:1055E000030AB8EE001A5FED6B0A9DED030AFDF7A2
:1055F000BBFE8DED040A9FEDA61ADDED040A1FED3A
:10560000700AFCF78EF98DED0B0ACDED0C0A8DEDCD
:105610000D1ADDED102A9DED0F2ADDED0E1A9DED20
:105620000D1ADDED0C0A9DED0B0AFDF79FFF8DEDC8
:10563000050A059802F006FA1FED7E0B53EC102BBD
:10564000CDE906019DED060B51EC100B02F010F9AF
:10565000CDE908019DED080B51EC100B01F078FB32
:105660001FED861A0A90DDED0A0A9DED250A01F06C
:1056700069F88DED250A8548006802F0E3F99FED91
:10568000850B53EC102BCDE906019DED060B51EC7B
:10569000100B01F039FECDE908019DED080BFCF778
:1056A0006FF98DED0A0B9FED7D0B53EC102B9DEDEB
:1056B0000A0B51EC100B01F027FE9FED7A1AFFEE5A
:1056C000080A9FED730ACDE90E01FCF72AF98DED6A
:1056D000140ACDED150A8DED161ADDED352A9DED76
:1056E000342ADDED331A9DED161ADDED150A9DED18
:1056F000140AFDF73BFF8DED090A099802F0A2F9A3
:105700009FED690B53EC102BCDE90A019DED0A0BBF
:1057100051EC100B02F0ACF8CDE90C019DED0E0B35
:1057200053EC102B9DED0C0B51EC100B01F042FBD8
:10573000CDE910019DED100B51EC100B01F008FBB1
:105740009FED5B1A1390DDED130A9DED250A00F025
:10575000F9FF8DED250A9FED571ADFED570A9FEDF2
:10576000570AFCF7DEF88DED140ACDED150A8DED24
:10577000161ADDED282A9DED272ADDED261A9DED6E
:10578000161ADDED150A9DED140AFDF7EFFE8DEDFD
:105790000D0A0D9802F056F99FED490B53EC102BB2
:1057A000CDE90E019DED0E0B51EC100B02F060F8EF
:1057B000CDE910019DED100B51EC100B01F0C8FA72
:1057C0009FED411A1390DDED130A9DED250A00F0BF
:1057D000B9FF8DED250A9FED3D1ADFED3D0A9FEDE6
:1057E0002C0AFCF79EF88DED140ACDED150A8DED0F
:1057F000161ADDED352A9DED342ADDED331A9DEDC7
:10580000161ADDED150A9DED140AFDF7AFFE8DEDBC
:105810000D0A0D9802F016F91FEDF60B53EC102B44
:10582000CDE90E019DED0E0B51EC100B02F020F8AE
:10583000CDE910019DED100B51EC100B01F088FA31
:105840009FED241A1390DDED130A9DED250A00F05B
:1058500079FF8DED250ABFEE001ADFED150A9FEDE9
:105860001E0AFCF75EF88DED1C0ACDED1D0A8DEDCC
:105870001E1A0648006802F0E5F89FED180B53EC7D
:10588000102BCDE910019DED100B2BE00000002046
:10589000000000000000000000000840B81E85EB7A
:1058A00051B89E3FCDCC4CBE000000000000E03F50
:1058B000CDCCCC3ECDCCCCBD33331340CDCC8C3F06
:1058C0009A9999999999C93FCDCC4C3F9A99193F8A
:1058D0009A99D9BFCDCCCC3D3333B33E0000000004
:1058E0000000F03F51EC100B01F0C2FF9FEDFE1BDA
:1058F000CDE912019DED120BFCF7E8F88DED140BCC
:105900009FEDFB0B53EC102B9DED140B51EC100B8A
:1059100001F0A0FE7ED2DDED2B2A9DED2A2ADDEDE1
:10592000291A9DED1E1ADDED1D0A9DED1C0A01F0E0
:10593000BEF98DED140ACDED150A8DED161A9DED0B
:10594000161ADDED150A9DED140AFEF7ACFE8DED7D
:10595000110ACDED120A8DED131ADDED1E2A9DED13
:105960001D2ADDED1C1A9DED2B1ADDED2A0A9DED99
:10597000290A01F09CF98DED0E0ACDED0F0A8DED8F
:10598000101A5FED2C3A9FEDDC3ADDED132A9DED08
:10599000122ADDED111A9DED101ADDED0F0A9DEDB5
:1059A0000E0AFDF7F7FC8DED050A059802F04AF89E
:1059B0009FEDD20B53EC102BCDE906019DED060BAC
:1059C00051EC100B01F054FFCDE908019DED080BDF
:1059D00051EC100B01F0B0F9CDE90A019DED0A0B75
:1059E00051EC100B01F0B4F99FEDC61A0D90DDEDEE
:1059F0000D0A9DED250A00F08FFE8DED250ADFEDE5
:105A0000C21A9DED1E1ADDED1D0A9DED1C0A01F066
:105A100032F900E0ECE08DED140ACDED150A8DEDC4
:105A2000161ADDED162A9DED152ADDED141A9DEDF1
:105A30002B1ADDED2A0A9DED290A01F038F98DEDCA
:105A4000110ACDED120A8DED131A9DED131ADDED3D
:105A5000120A9DED110AFDF72BFE8DED0B0A0B9836
:105A600001F0F0FF1FED6A0B53EC102BCDE90C0198
:105A70009DED0C0B51EC100B01F0FAFECDE90E017F
:105A80009DED0E0B51EC100B01F062F99FED9F1A8A
:105A90001090DDED100A9DED250A00F053FE8DED0E
:105AA000250A2C98139001F0CDFF9FED990B53EC34
:105AB000102BCDE914019DED140B51EC100B01F0EE
:105AC000C9FD45D2BFEE001ADFED930A9FED930AA0
:105AD000FBF727FF8DED140ACDED150A8DED161A93
